:020000040800F2
:1000000070D900203103000849AF000801870008BB
:1000100045AF0008DB1A0008CDF50008000000001D
:100020000000000000000000000000007102000855
:10003000B12F000800000000CD020008C9C200086E
:100040004B0300084B0300084B0300084B03000858
:100050004B0300084B0300084B0300084B03000848
:100060004B0300084B0300084B0300084B03000838
:10007000692A00084B0300084B0300084B030008E3
:10008000792A00084B0300084B0300084B030008C3
:10009000E11A00084B0300084B0300084B0300085B
:1000A000C5C300084B0300084B0300084B030008BE
:1000B0004B0300084B0300084B0300084B030008E8
:1000C0004B0300084B0300084B0300084B030008D8
:1000D0004B0300084B030008B5CB0008C5CB000854
:1000E0004B0300084B0300084B0300084B030008B8
:1000F0004B0300084B0300084B0300084B030008A8
:100100004B0300084B0300084B0300084B03000897
:100110004B0300084B0300084B0300084B03000887
:10012000892A0008992A00084B030008A92A000818
:100130004B0300084B0300084B0300084B03000867
:10014000F11A00084B0300084B0300084DAF0008EC
:100150004B0300084B0300084B030008D5CB0008F5
:100160004B0300084B0300084B0300084B03000837
:100170004B0300084B0300084B030008000000007D
:100180004B0300084B03000800F002F800F060F891
:100190000AA090E8000C82448344AAF10107DA45E2
:1001A00001D100F055F8AFF2090EBAE80F0013F0D4
:1001B000010F18BFFB1A43F001031847F88501002F
:1001C000188601000A444FF0000C10F8013B13F0B0
:1001D000070408BF10F8014B1D1108BF10F8015BA0
:1001E000641E05D010F8016B641E01F8016BF9D193
:1001F00013F0080F1EBF10F8014BAD1C0C1B09D1EA
:100200006D1E58BF01F801CBFAD505E014F8016B5B
:1002100001F8016B6D1EF9D59142D6D370470000ED
:100220000023002400250026103A28BF78C1FBD8FF
:10023000520728BF30C148BF0B6070471FB516F08A
:1002400098FA9DE8030000F0F7FF1FBD10B510BD40
:1002500001F076F81146FFF7F1FF13F037FB01F0DC
:1002600094F803B4FFF7F2FF03BC01F0CBF80000F1
:100270002C4B19680868B0E8F04F80F30988BFF389
:100280006F8F4FF0000080F311887047000000006E
:1002900008480068006880F308884FF0000080F389
:1002A000148862B661B6BFF34F8FBFF36F8F00DF64
:1002B00000BF00BF08ED00E0DFF80C00016841F46A
:1002C00070010160704700BF88ED00E0EFF3098026
:1002D000BFF36F8F134B1A681EF0100F08BF20ED8D
:1002E000108A20E9F04F106009B44FF0500080F3FD
:1002F0001188BFF34F8FBFF36F8F14F06BFB4FF07C
:10030000000080F3118809BC19680868B0E8F04F54
:100310001EF0100F08BFB0EC108A80F30988BFF3FD
:100320006F8F704790000020EFF30580704700004A
:100330000948804709480047FEE7FEE7FEE7FEE779
:10034000FEE7FEE7FEE7FEE7FEE7FEE704480549B5
:10035000054A064B70470000B1C300088901000838
:100360007099002070D9002070B9002070B9002069
:100370009FED1A1AF5EE000A40EE010ABDEEE00A02
:10038000F5EEC00A10EE100AF1EE10FA38BF401E6A
:1003900000EE100A1349F7EE001AB8EEC00A30EE6C
:1003A000C00ADFED0F0A20EE200AFCEEC00A10EEB4
:1003B000900AC0F3080000EE900A01EB8000F8EE0E
:1003C000600A90ED011A70EE600A90ED000A71EE7D
:1003D000E01A21EE800A00EE810A704783F9223E7E
:1003E00000000044487D0108B5EEC00AF1EE10FAA5
:1003F00007D2DFED1E0AB4EEE00AF1EE10FAA8BF54
:100400007047DFED1B0AB5EEC00A60EE200ABDEEB4
:10041000E01A11EE100AF1EE10FA38BF401E00EE9D
:10042000100A1549F7EE001AB8EEC00A30EEC00AFD
:10043000DFED100A60EE200ABCEEE00A10EE100AB2
:10044000C0F3080000EE100A01EB8000B8EE400A8D
:1004500090ED011A70EEC00A90ED000A71EEE01AFC
:1004600021EE800A00EE810A70470000CD024CB4F4
:1004700083F9223E00000044487D010870B40588DD
:100480000E884468D1F804C05368B54208D140884A
:100490004988884201BF11888D425188884203D023
:1004A00070BC6FF00200704705FB00F1880827D090
:1004B00094ED001ADCED000A94ED010ADCED011A5E
:1004C00031EE201AD4ED020A70EE211A9CED020AD8
:1004D00083ED001AC3ED011A94ED031ADCED031A43
:1004E00030EE800A401E71EE210A83ED020A04F10B
:1004F0001004C3ED030A03F110030CF1100CD7D163
:1005000011F0030030D0B0F1004F30D200282BDDC5
:10051000211F1B1FACF1040210F0010F0AD091ED56
:10052000010AD2ED010A091D121D30EE200A83EDE9
:10053000010A1B1D400817D091ED010AD2ED010AF6
:10054000401E30EE200A83ED010A91ED020AD2ED41
:10055000020A01F1080102F1080230EE200A83EDDF
:10056000020A03F10803E7D170BC00207047B4EC25
:10057000010A401EFCEC010A30EE200AA3EC010A3D
:10058000F5D1F1E701804280436070472DE9F34FD8
:1005900084B0049840680090486801900498B0F8CE
:1005A00000E04588DFEDFE0A00200290B0EE600A10
:1005B000AE4506D108884988884204BF7146864501
:1005C00004D06FF0020006B0BDE8F08F01985FEA3A
:1005D000010C18BFB7EE001A3DD000BFBEEB0C01F6
:1005E00017D0B1F1004F80F01F82002911DD021FEA
:1005F00011F0010F1CBFC2ED010A121D4B1006D0F5
:10060000C2ED010AC2ED020A08325B1EF8D100EB0E
:100610008100BCF10102A0EC011A19D0B2F1004F27
:1006200080F00882002A13DD031F12F0010F1CBFA7
:10063000C3ED010A1B1D511008D000BFC3ED010A14
:10064000C3ED020A491E03F10803F7D100EB820053
:10065000BCF1010CC2D14FF000080395002D14BF6E
:10066000B0EE602A002000F0BF8100BF009908FBB7
:1006700005F001EB800B0199DBED002A01EB800016
:100680000346F0EE421AC64552D9AEEB0802ABEB78
:10069000850112F0010F17D001EB850191ED000AE1
:1006A000B5EEC00AF1EE10FA07DDB4EEE10AF1EEA4
:1006B00010FA09DDF0EE401A06E0B1EE400AF4EE61
:1006C000C01AF1EE10FAF5D3521031D001EB850CBF
:1006D0009CED000AB5EEC00AF1EE10FA05DDB4EEAD
:1006E000E10AF1EE10FA09DD06E0B1EE400AF4EE9F
:1006F000C01AF1EE10FA01D2F0EE401A01EBC5017A
:1007000091ED000AB5EEC00AF1EE10FA05DDB4EE87
:10071000E10AF1EE10FA09DD06E0B1EE400AF4EE6E
:10072000C01AF1EE10FA01D2F0EE401A521ECDD1ED
:10073000F5EEC01AF1EE10FA00F07381F5EEC02A62
:100740000126F1EE10FA0099D4BFB1EE620AB0EEC4
:10075000620AB4EE610AF1EE10FA1CBFAEEB0802B9
:10076000B2F1010C47D005FB08F201EB820292EDD9
:10077000001A00BFB0EE410A05FB06F4B5EEC00A50
:1007800000EB8404F1EE10FACCBFF0EE400AF1EE7B
:10079000400AF4EE610AF1EE10FA28D1B5EB080C2C
:1007A00011D0BCF1004F7DD2BCF1000F0BDD00BFBA
:1007B00092ED000AD1ED000ABCF1010CE2EC010A55
:1007C000A1EC010AF4D129000ED0B1F1004F6AD298
:1007D000002909DD94ED000AD0ED000A491EE4EC81
:1007E000010AA0EC010AF5D1012002900BE0761C71
:1007F000BCF1010CBED10298012804D0F5EEC02A4C
:10080000F1EE10FA7ED09BED000AB5EB08009A4697
:100810005946064622D0B0F1004F74D200281DDDA3
:10082000091F10F0010F06D0F0EE400A80EEA01A6A
:1008300081ED011A091D401010D000BFD1ED010A51
:10084000401E80EE801A81ED011A91ED021AC1EE70
:10085000000AC1ED020A01F10801EFD1280026D0FB
:10086000B0F1004F7ED2002821DDAAF1040110F082
:10087000010F06D0D1ED010A80EE801A81ED011A38
:10088000091D401013D000BFD1ED010A401E80EEBB
:10089000801A81ED011AD1ED020A80EE801A81EDF5
:1008A000021A01E0CBE0D6E001F10801ECD1DDE96C
:1008B00000124FF000095FEA0E0773D0C14504BF74
:1008C00001EB860102EB850274D091ED000ADC4653
:1008D0005046331E35D01C46B6F1004F7ED2002C58
:1008E0002FDD0B1FABF1040C16F0010F0FD0F0EE53
:1008F000400ADCED011AB0EE601A00EEE11A83ED59
:10090000011A01E08DE0B1E01B1D0CF1040C741024
:1009100015D000BFD3ED010A9CED011A40EE410A4B
:10092000C3ED010AD3ED020A9CED021A0CF1080C8A
:1009300040EE410AC3ED020A0833641EEAD101EB1E
:1009400086012B0036D0B3F1004F72D2002B31DD7F
:10095000A2F1040CAAF1040013F0010F0CD0DCED9D
:10096000010A00E08BE090ED011A001D40EE410A03
:10097000CCED010A0CF1040C5C1019D0DCED010A7D
:1009800090ED011A40EE410ACCED010ADCED020ABD
:1009900090ED021A083040EE410ACCED020A03E065
:1009A000000000000DE005E0641E0CF1080CE5D12C
:1009B00002EB830201EB88017F1E09F101097FF43C
:1009C0007DAF009808F10108001D00900398401EBB
:1009D00003907FF44BAE0299012900E058E004BF78
:1009E00006B0BDE8F08F00BFB5EEC00AF1EE10FA18
:1009F0007FF4E9AD04990EFB05F3002B4A684FF034
:100A000000010BD902EB810C9CED000AB5EEC00A87
:100A1000F1EE10FA02D1491C8B42F3D88B427FF4DD
:100A2000D2AD6FF00400CEE5E0EC010A491EFBD127
:100A3000EFE538E0E0EC010A521EFBD108E692ED4A
:100A4000000AD1ED000ABCF1010CE2EC010AA1ECB4
:100A5000010AF4D1B7E694ED000AD0ED000A491E70
:100A6000E4EC010AA0EC010AF5D1BDE6D1ED000AE3
:100A7000401E80EE801AA1EC011AF7D1EEE6D3ED0C
:100A8000000A401E80EE801AA3EC011AF7D10EE78F
:100A9000BCEC011AD1ED000A5B1E40EE410AE1EC0C
:100AA000010AF5D14DE7B0EC011AD2ED000A5B1E48
:100AB00040EE410AE2EC010AF5D17BE72DE9F04F67
:100AC00082B0466853680193058847884B880020A8
:100AD00000900888874201BFB2F800C0654552887F
:100AE00093421EBF6FF0020002B0BDE8F08F9FED91
:100AF000412A4FEA970EC7F3400B00BFDDE9000221
:100B000002EB800A4A6898464FF00009B0EE420AAC
:100B1000B4465FEA0E0025D092ED001ADCED001A13
:100B200002EB8302DCED010A01EE810A92ED001A6C
:100B300002EB8302401ED2ED001A02EB830200EEAC
:100B4000810A9CED021ADCED030A00040CF1100C82
:100B5000000C01EE210A92ED001A02EB830200EE76
:100B6000810AD9D117F0030026D0ACF10404A2EB1E
:100B7000830210F0010F08D002EB8302D4ED010ACA
:100B800092ED001A241D00EE810A5FEA0B0013D0DB
:100B900002EB830CD4ED010A9CED001A02EBC302B8
:100BA000401E00EE810AD4ED020A92ED001A04F113
:100BB000080400EE810AEBD109F10100AAEC010A58
:100BC0001FFA80F9486800EB8902A8F101001FFABA
:100BD00080F8B8F1000F99D1009806EB8706184409
:100BE00080B20090681E05042D0C87D102B0002051
:100BF000BDE8F08F0000000070B405880E884468DE
:100C0000D1F804C05368B54208D140884988884269
:100C100001BF11888D425188884203D070BC6FF0AB
:100C20000200704705FB00F1880827D094ED001AF8
:100C3000DCED000A94ED010ADCED011A31EE601AD8
:100C4000D4ED020A70EE611A9CED020A83ED001ADF
:100C5000C3ED011A94ED031ADCED031A30EEC00A5D
:100C6000401E71EE610A83ED020A04F11004C3ED27
:100C7000030A03F110030CF1100CD7D111F003009B
:100C800030D0B0F1004F30D200282BDD211F1B1FC8
:100C9000ACF1040210F0010F0AD091ED010AD2ED7F
:100CA000010A091D121D30EE600A83ED010A1B1DA9
:100CB000400817D091ED010AD2ED010A401E30EE36
:100CC000600A83ED010A91ED020AD2ED020A01F1F8
:100CD000080102F1080230EE600A83ED020A03F116
:100CE0000803E7D170BC00207047B4EC010A401E35
:100CF000FCEC010A30EE600AA3EC010AF5D1F1E741
:100D00002DE9F04F02884768B0F802804888D1F892
:100D1000049082B04FF0000A1646824207BF09884D
:100D200088456FF0020002B018BFBDE8F08F4FEAAF
:100D3000980B02EB42000190C8F34000CDF8000090
:100D400009EB8A01BBF1000F33D0019801EB820C53
:100D500001EB80043B46E64601EBC2054FEA0B007F
:100D600093ED000A401E81ED000A93ED010A01EBAC
:100D700002118CED000A93ED020A0CEB021C85EDCA
:100D8000000A93ED030A05EB021584ED000A04EB5B
:100D9000021403F11003E3D10EEB820000EB82009A
:100DA00000EB8201ABF10100504307EB0B1701EBA5
:100DB000001118F0030C21D03B1FA1EB82011CF0A5
:100DC000010F06D093ED010A01EB82011B1D81ED9D
:100DD000000A009880B100BF93ED010A01EB820484
:100DE00001EBC20184ED000A93ED020A401E81ED81
:100DF000000A03F10803EFD107EB8C070AF10100A9
:100E00001FFA80FA701E0604360C99D102B0002039
:100E1000BDE8F08F70B5064600F0F2F9056806F1FE
:100E20000B0020F00704B4429CBF002070BD2B468D
:100E30006A68BAB11068A04210D304F10801884270
:100E40003CBF5068586007D3516810194160116861
:100E5000091B016058601460101D70BD1346526874
:100E6000002AE7D12146284600F0D2F90028DED139
:100E700070BD70B50446051F00F0C2F90068002C73
:100E800014BF446870BD002C18BFAC423CBF204664
:100E90006468F8D301680A18AA4218BF456003D1F4
:100EA0002A6805461144016028684119A1421CBF07
:100EB0006C6070BD6168696021680844286070BD1D
:100EC00053EA020C00F069802DE9F04B4FF0000668
:100ED000002B1FBFB3FA83F503FA05F424FA05F6D5
:100EE0005E4012BF1643B2FA82F502FA05F4C5F16C
:100EF00020051EBF22FA05FC44EA0C04203556EA00
:100F0000044C4FEA144418BF641C4FF000084FF023
:100F10000009904271EB030C39D3002919BFB1FAD3
:100F200081F701FA07F6B0FA80F700FA07F6C7F181
:100F300020071EBF20FA07FC46EA0C062037B6FB46
:100F4000F4FCA7EB0507103F07F01F0BCBF12006C1
:100F50000CFA0BFB2CFA06F644BFB3460026202FF2
:100F6000A4BF5E464FF0000B5BEA060C08BF4FF0D3
:100F7000010B19EB0B09ABFB027C48EB0608C01B0D
:100F800006FB02CC0BFB03CC71EB0C01C1E70B465B
:100F9000024641464846BDE8F08B13B54FF00000CD
:100FA0004FF00001AFF30080BDE81C40704740EAFD
:100FB0000103024630B59B0710D14FF0013400E029
:100FC00008C208C91D1B9D4315EAC41FF8D013F0C1
:100FD000FF0102F8011B0DD01B0AF8E711F8013BD5
:100FE000002B02F8013B05D011F8013B002B02F861
:100FF000013BF3D130BD032A40F2308010F0030CE6
:1010000000F0158011F8013BBCF1020F624498BF5B
:1010100011F801CB00F8013B38BF11F8013BA2F1F8
:10102000040298BF00F801CB38BF00F8013B11F073
:10103000030300F02580083AC0F0088051F8043B13
:10104000083A51F804CBA0E80810F5E7121D5CBF80
:1010500051F8043B40F8043BAFF30080D20724BFB3
:1010600011F8013B11F801CB48BF11F8012B24BF47
:1010700000F8013B00F801CB48BF00F8012B704796
:1010800010B5203AC0F00B80B1E81850203AA0E823
:101090001850B1E81850A0E81850BFF4F5AF5FEA57
:1010A000027C24BFB1E81850A0E8185044BF18C90A
:1010B00018C0BDE810405FEA827C24BF51F8043BB1
:1010C00040F8043B08BF7047D20728BF31F8023B05
:1010D00048BF11F8012B28BF20F8023B48BF00F899
:1010E000012B70474FF000020429C0F0128010F06D
:1010F000030C00F01B80CCF1040CBCF1020F18BFF4
:1011000000F8012BA8BF20F8022BA1EB0C0100F086
:101110000DB85FEAC17C24BF00F8012B00F8012B59
:1011200048BF00F8012B70474FF0000200B513468E
:1011300094469646203922BFA0E80C50A0E80C50F7
:10114000B1F12001BFF4F7AF090728BFA0E80C50A8
:1011500048BF0CC05DF804EB890028BF40F8042BA1
:1011600008BF704748BF20F8022B11F0804F18BF0E
:1011700000F8012B704700004FF0013C50F8042BA1
:1011800051F8043B9A4221D1A2EB0C03934313EA9A
:10119000CC1317D150F8042B51F8043B9A4215D1C7
:1011A000A2EB0C03934313EACC130BD150F8042B9E
:1011B00051F8043B9A4209D1A2EB0C03934313EA82
:1011C000CC13DBD04FF00000704700BFD01A01BA3B
:1011D000B1FA81F101F0180122FA01F0CB40C1F11E
:1011E0002001DBB2C0B2C01A2CFA01F3D11A91432C
:1011F00011EAC311E6D1704770477047704700008D
:101200000048704718990020704770477047704732
:1012100038B504460A4600206946AFF3008000282E
:1012200008BF38BD02460099204600F04FF8012063
:1012300038BD012000F07CB8F8B5AFF3008005465A
:1012400000200C46102000BF0646A819A0420DD968
:10125000324669460020AFF30080070008BF00F067
:1012600067F80098A04218BF0546C419FFF7C8FFE9
:1012700005600746F01D20F007004619284600F0DB
:101280000AF8B44208BFF8BDA21B31463868BDE871
:10129000F84000F01BB800210160C0E90110704760
:1012A0001020704710B500F00DF8006810BD10B5A3
:1012B000044600F007F8046010BD000000487047C5
:1012C000109900200048704710990020034640689C
:1012D0008C46002818BF88423CBF03464068F8D3BC
:1012E00018681844884207D00CF1030020F007006A
:1012F000001D411A521A0146081D0A60FFF7B9BDC8
:101300001FB584B000200A9C06AB04AA02A9009471
:10131000AFF3008018B1DDE9020108B010BD034849
:10132000204000F040F800200146F6E70000207C55
:1013300010B500F03FF8BDE8104000F02FB870473E
:101340007546FFF7BBFFAE4605006946534620F0E1
:101350000700854618B020B5FEF7F8FFBDE820402D
:101360004FF000064FF000074FF000084FF0000B61
:1013700021F00701AC46ACE8C009ACE8C009ACE814
:10138000C009ACE8C0098D46704710B50446AFF3FC
:1013900000802046BDE81040FEF763BF002801D062
:1013A00000F030B8704710B500F04CF8BDE81040C0
:1013B000FFF7F4BF10B5012805D0002103A000F00D
:1013C00027F8012010BD09A1F8E700005349475252
:1013D000544D454D3A204F7574206F662068656105
:1013E00070206D656D6F7279000000003A204865CD
:1013F0006170206D656D6F727920636F72727570A8
:101400007465640001491820ABBEFEE726000200A7
:1014100070B505460C460A2000E06D1C00F068F827
:1014200035B128780028F8D102E0641C00F060F89B
:1014300014B120780028F8D1BDE870400A2000F0EF
:1014400057B8000010B5022803D0410103D50DA103
:1014500012E0002010BD010101D50FA10CE0C10078
:1014600001D511A108E0810001D512A104E04000DE
:1014700001D513A100E0002115A0FFF7C9FF01204D
:1014800010BD0000496E76616C6964204F70657212
:101490006174696F6E00000044697669646520427A
:1014A00079205A65726F00004F766572666C6F77AF
:1014B00000000000556E646572666C6F7700000076
:1014C000496E657861637420526573756C740000B1
:1014D0005349474650453A2041726974686D6574B6
:1014E000696320657863657074696F6E3A200000E7
:1014F00008B569468DF800000320ABBE08BD0000AA
:1015000010B501221021024804F040FB10BD00007C
:101510000000024010B500221021024804F036FB02
:1015200010BD00000000024010B501221146024823
:1015300004F02CFB10BD00000004024010B5002296
:101540000121024804F022FB10BD0000000402400B
:101550001CB50446002000900190FFF7DBFF9220AD
:1015600000F0A2F906226946122000F07DF9FFF78B
:10157000C7FF9DF80100000200B29DF8001008436B
:101580008E4908800846B0F9000000EE100AB8EE57
:10159000C00A8B48D0ED000A20EE200AD4ED080ADC
:1015A00020EE200A84ED000A9DF80300000200B23C
:1015B0009DF802100843814908800846B0F90000F0
:1015C00000EE100AB8EEC00A7D48D0ED000A20EE09
:1015D000200AD4ED080A20EE200A84ED010A9DF8C5
:1015E0000500000200B29DF804100843734908800A
:1015F0000846B0F9000000EE100AB8EEC00A7048C4
:10160000D0ED000A20EE200AD4ED080A20EE200AD0
:1016100084ED020AFFF792FF08226946002000F0DD
:1016200023F9FFF781FF9DF800000F284FD165488F
:101630000078E8B39DF80300000200B29DF80210A4
:1016400008435E49088094ED090A0846B0F9000095
:1016500000EE900AF8EEE00A5B4890ED001A10EEFA
:10166000810A84ED030A9DF80500000200B29DF88E
:10167000041008435149088094ED0A0A0846B0F95D
:10168000000000EE900AF8EEE00A4F4890ED001AD4
:1016900010EE810A84ED040A9DF80700000200B2F2
:1016A0009DF8061008434549088094ED0B0A00E0B8
:1016B0000EE00846B0F9000000EE900AF8EEE00AED
:1016C000414890ED001A10EE810A84ED050A44E0CD
:1016D0009DF80300000200B29DF80210084337494C
:1016E00008800846B0F9000000EE100AB8EEC00A03
:1016F0003548D0ED000A20EE200A84ED030A9DF85B
:101700000500000200B29DF8041008432B49088030
:101710000846B0F9000000EE100AB8EEC00A2A48E8
:10172000D0ED000A20EE200A84ED040A9DF807009F
:10173000000200B29DF806100843204908800846C0
:10174000B0F9000000EE100AB8EEC00A1E48D0ED55
:10175000000A20EE200A84ED050AFFF7DBFEA22036
:1017600000F0A2F802226946222000F07DF8FFF77F
:10177000C7FE9DF80000C0009DF8011040EA61100E
:101780000E4908800846B0F90000B0F5806F05DB0F
:1017900008460088A0F5006000B208800748B0F94C
:1017A000000000EE100AF8EEC00AB4EE001AB3EE24
:1017B000070A00EE810A84ED070A1CBDB60300206B
:1017C00078030020880300207C03002070B50446C5
:1017D0000D461C48046000201B49087011F028F9D0
:1017E0001949097808431849087011F0D7F91649C2
:1017F00009780843144908701DB1144800F066FBCD
:101800001CE09FED130A114880ED090A9FED110AB3
:1018100080ED0A0A9FED100A80ED0B0A9FED0F0A7A
:1018200080ED0C0A90ED0C0ADFED0D0A80EE801AB7
:1018300080ED081A9FED0B0A80ED060A0248007839
:1018400070BD0000B80300208203002070960020C5
:101850009A0AB03B53F92EBBB0ECA9BAB3D61B41E0
:10186000C3F51C410000204270B506460C461546E3
:1018700046F0800000F018F806E0552000F014F85B
:101880002070641C681EC5B2002DF6D170BD70B505
:1018900004460D4644F0800000F006F8552000F0A4
:1018A00003F8287070BD000001B582B04FF47A7063
:1018B000012301AA02A900900348006805F01EFE5A
:1018C0009DF804000EBD0000B803002070B5054669
:1018D0000C462846FFF7E8FF2046FFF7E5FF70BDFE
:1018E00070B504460D4661190F2204F58070FFF7AC
:1018F00082FB0F2104F580700DF08EFE01280ED1C1
:10190000D4F8072104F2B510C4F8B521B4F80B11CE
:10191000A4F8B911002140F2BB10015503E00121E8
:1019200040F2BB10015570BD024691F8310003280A
:1019300002DA91F8320008B900207047B1F9360098
:10194000904205DAD1F83A00401CC1F83A000DE0A7
:10195000B1F936004042904205DDD1F83A00401C12
:10196000C1F83A0002E00020C1F83A00D1F83A008C
:10197000B1F93830984201DD0120DEE70020DCE7D4
:10198000D2ED020A92ED021AB6EE000A00EEC10A8A
:10199000D2ED030A92ED031A00EEC10AD0ED000A5F
:1019A00020EE200AD2ED010A92ED021A60EE810AC1
:1019B00092ED001AD2ED031A41EE610A90ED011A80
:1019C00000EE810AD2ED010A92ED031A60EE810A5F
:1019D00092ED001AD2ED021A41EE210A90ED021AA0
:1019E00000EE810AF0EE000A20EE200A81ED000AE6
:1019F00092ED010AD2ED020A20EE200AD2ED000A91
:101A000092ED031A00EE810AD0ED000A60EE200A82
:101A100092ED011AD2ED011AB6EE000A01EE610A4A
:101A2000D2ED031A92ED032AB0EE401A01EEC21A6B
:101A3000D0ED011AB0EE600A01EE210AD2ED020AE1
:101A400092ED031A60EE810A92ED001AD2ED011AAE
:101A500041EE610A90ED021A00EE810AF0EE000AF2
:101A600020EE200A81ED010A92ED010AD2ED030A6F
:101A700020EE200AD2ED000A92ED021A00EEC10A11
:101A8000D0ED000A20EE200AD2ED020A92ED031AF0
:101A900060EE810A92ED001AD2ED011A41EE210AA0
:101AA00090ED011A00EE810A92ED011AD2ED011AB1
:101AB000F6EE000A41EE610A92ED021AD2ED021A28
:101AC00041EE610A90ED021A00EE810AF0EE000A82
:101AD00020EE200A81ED020A704700BFFEE70000F9
:101AE00010B5024803F028FA10BD0000440700209A
:101AF00010B5024803F020FA10BD00006C0700206A
:101B000078B506460D461446A4F82B6004F125006E
:101B1000A4F82750B4F9340095FBF0F000EE100A59
:101B2000B8EEC00ADFED460A20EE200AF0EE000A09
:101B300060EE200AA06800EE100AB2EE041AC0EEB1
:101B4000011A60EEA10A9FED3F1A80EE810A10EEA5
:101B5000100A2061B4F82700B4F82510401A00B22A
:101B6000A4F82900B4F82700A4F82500206900EEA5
:101B7000100AE06800EE900A30EE600A10EE100ADB
:101B800060612069E06094F8240048B90120641D78
:101B9000E077E08C2085B4F9260044F8010C641F3E
:101BA000B4F82B20B4F82D30D21A10B2B4F92F109B
:101BB0000FF0FCFA009020680099084420606068EB
:101BC000009908446060B4F82B00A4F82D00A08EA2
:101BD000B4F82F1010FB01F000EE100AF8EEC00A66
:101BE000606800EE100AB8EEC01A81EE200ADFED40
:101BF000160A20EE200A10EE100AE061A08EB4F85A
:101C00002F1010FB01F000EE100AF8EEC00A206859
:101C100000EE100AB8EEC01A81EE200ADFED0A0AC3
:101C200020EE200A10EE100A20622146009800B231
:101C3000FFF77AFE84F833000020009078BD0000A2
:101C4000D00F4940000070420000B4430346042B0B
:101C500015D007DC7BB1012B0ED0022B0DD0032B4E
:101C600012D10BE0202B0BD0212B0AD0222B09D034
:101C7000232B09D107E008E007E006E005E004E0D7
:101C800003E002E001E000E000BF00BF0020704779
:101C90000020704710B50022044905480BF03FFAB8
:101CA000044903480BF02CFA002010BD4C1800200A
:101CB000700B00204C10002070B504460D462146E4
:101CC00009480BF01DFA08480BF0E6F907480068D0
:101CD000006A30B105492A680968086A214611F08E
:101CE0008EFA002070BD0000700B0020180200204A
:101CF00010B503460C460021084610BD2DE9F04101
:101D000004460D4600260A48D0F8BC72D7F81402E3
:101D100010B10120BDE8F0812A46214604480BF0AD
:101D2000FEF903480BF0AEFA06463046F2E7000033
:101D3000700B002070B504460D466119152204F59C
:101D40008070FFF758F9152104F580700DF064FCE0
:101D5000012810D1D4F80721C4F80822D4F80B21A7
:101D6000C4F80C22D4F80F11C4F8101200214FF45B
:101D70000570015503E001214FF40570015570BD58
:101D800070B504460D466119132204F58070FFF703
:101D900032F9132104F580700DF03EFC012812D1B8
:101DA000D4F8072104F22220C4F82222D4F80B210F
:101DB000C4F82622B4F80F11A4F82A1200214FF417
:101DC0000B70015503E001214FF40B70015570BDFC
:101DD00010B540212548FFF7A7F9254B254A3C219E
:101DE00025A00AF03BF92A4908602A4B2A4A4FF4F9
:101DF000FA712AA00AF032F92F4908602F4B01220C
:101E00000021104601F040F92D4B40F20442002120
:101E1000012001F039F92B4B40F2666200210120CC
:101E200001F032F911F0E2FC1049486011F0E4FCD5
:101E30000E49886009F0D8FB0C49C86001F02EFEFD
:101E40000A490861002008754875012081F83800AA
:101E5000002081F83C0081F83D004FF47A6048870B
:101E600011F0D8FC1849086010BD0000B0880020AF
:101E7000C52E01085D2E0108447231365F46726F2F
:101E80006D5F436861737369735F536166650000DA
:101E9000C4020020812F0008712F00084465616C86
:101EA0005F50697463685F4C696D69745F4D6F72F0
:101EB000655F536166650000D00200202D2E00088A
:101EC000852F0008412F0008BC02002070B52DEDC1
:101ED000048B88B0044600200690079000F0E0FED6
:101EE000FE4880ED000A00BF00F0DAFEFB48D0EDAE
:101EF000000A30EE600AF2EE040AB4EEE00AF1EEF7
:101F000010FA14DD9FEDF60A84ED090A9FEDF50A3B
:101F100084ED0A0A9FEDF40A84ED0B0A9FEDF30AA3
:101F200084ED0C0A9FEDF20A84ED060A57E29FED5C
:101F3000F10A00F049FE9FEDF00A84ED0C0A9FEDD6
:101F4000EE0A84ED090A9FEDEC0A84ED0A0A9FED82
:101F5000EA0A84ED0B0A002673E1FFF7DBFA922010
:101F6000FFF7A2FC062206A91220FFF77DFCFFF76F
:101F7000C7FA9DF81900000200B29DF8181040EA57
:101F8000010500EE105AB8EEC00ADC48D0ED000A98
:101F900020EE200A84ED000A9DF81B00000200B22A
:101FA0009DF81A1040EA010500EE105AB8EEC00A7A
:101FB000D248D0ED000A20EE200A84ED010A9DF8F7
:101FC0001D00000200B29DF81C1040EA010500EE61
:101FD000105AB8EEC00AC948D0ED000A20EE200A17
:101FE00084ED020AD4ED000A60EEA00A94ED011A15
:101FF000D4ED011A41EE210A94ED021AD4ED021A31
:1020000041EE210AB0EE600A0EF06EFCB0EE408A9E
:1020100094ED0C0A30EE080A84ED0C0AFFF78EFAF4
:10202000082206A90020FFF71FFCFFF77DFA9DF8A4
:1020300018000F2850D19DF81B00000200B29DF837
:102040001A1040EA010500EE105AB8EEC00AAC487A
:10205000D0ED000A20EE200A84ED030A94ED090A6F
:10206000D4ED030A30EE200A84ED090A9DF81D0024
:10207000000200B29DF81C1040EA010500EE105A63
:10208000B8EEC00A9E48D0ED000A20EE200A84ED8A
:10209000040A94ED0A0AD4ED040A30EE200A84ED15
:1020A0000A0A9DF81F00000200B29DF81E1040EAC7
:1020B000010500EE105AB8EEC00A9148D0ED000AB2
:1020C00020EE200A84ED050A94ED0B0AD4ED050AF2
:1020D00030EE200A84ED0B0A06BBF0EE488AB0EE23
:1020E000489A002017E004F10C0101EB800191ED0A
:1020F000000A03A901EB800181ED000A04F10C0143
:1021000001EB800191ED000A694601EB800181ED50
:10211000000A411CC8B20328E5DB49E0B4EEE88AB6
:10212000F1EE10FA01DDF0EE488AB4EEC98AF1EE64
:1021300010FA01D2B0EE489A002037E004F10C0109
:1021400001EB800191ED000A03A901EB8001D1EDC3
:10215000000AB4EEE00AF1EE10FA0ADD04F10C0117
:1021600001EB800191ED000A03A901EB800181EDF3
:10217000000A04F10C0101EB800191ED000A6946AF
:1021800001EB8001D1ED000AB4EEE00AF1EE10FAA5
:102190000AD204F10C0101EB800191ED000A6946BD
:1021A00001EB800181ED000A411CC8B20328C5DBA8
:1021B00038EEC90A534880ED000A002012E003A956
:1021C00001EB800191ED000A694601EB8001D1ED40
:1021D000000A30EE600A4C4901EB800181ED000AF3
:1021E000411CC8B20328EADB464890ED000AF6EE2F
:1021F000000AB4EEE00AF1EE10FA1BDC424890ED62
:10220000000ADFED420AB4EEE00AF1EE10FA11DC4A
:1022100090ED010ADFED3D0AB4EEE00AF1EE10FAAE
:1022200008DC90ED020ADFED390AB4EEE00AF1EEC7
:1022300010FA00DD0AE09FED360A00F0C5FC701CC4
:1022400086B2344800888642FFF687AE00BFD4EDE0
:102250000C0A3048008800EE100AB8EE400A80EE02
:10226000801A84ED0C1A002015E004F1240101EB22
:102270008001D1ED000A2749098800EE101AB8EE56
:10228000400A80EE801A04F1240101EB800181ED07
:10229000001A411CC8B20328E7DBFFF73BF9A22074
:1022A000FFF702FB022206A92220FFF7DDFAFFF763
:1022B00027F99DF81800C0009DF8191040EA611533
:1022C000B5F5806F02DBA5F5006005B200EE105A8F
:1022D000F8EEC00AB4EE001A1EE00000B0030020C1
:1022E0009A0AB03B53F92EBBB0ECA9BAB3D61B4146
:1022F000000020420AD7A33B000000007803002022
:102300007C03002084030020649600209A99193EE3
:102310006F12033AB4030020B3EE070A00EE810AFD
:1023200084ED060A34480088401C00B23249088017
:10233000324890ED000AF6EE000AB4EEE00AF1EE43
:1023400010FA3FF7D1AD94ED0C0ADFED2D0A30EE17
:10235000600AB0EEC00AF6EE000AB4EEE00AF1EE52
:1023600010FAEEDC274890ED000A5FED180AB4EE93
:10237000E00AF1EE10FAE4DC90ED010A5FED1D0ACF
:10238000B4EEE00AF1EE10FADBDC90ED020A5FED4C
:10239000210AB4EEE00AF1EE10FAD2DC94ED090A5B
:1023A000B0EEC00ADFED180AB4EEE00AF1EE10FA62
:1023B000C7DC94ED0A0AB0EEC00ADFED130AB4EEF2
:1023C000E00AF1EE10FABCDC94ED0B0AB0EEC00AA4
:1023D000DFED0D0AB4EEE00AF1EE10FAB1DC00BF59
:1023E00094ED0C0ADFED090A80EE801A84ED081ADC
:1023F00008B0BDEC048B70BD8A030020840300206C
:10240000CDCC1C41649600200AD7233CC3F51C4167
:10241000416C00EE101AB5EEC00AF1EE10FA03DDC1
:10242000416C00EE101A04E0416C00EE101AB1EE9F
:10243000400A816E00EE901AB4EEE00AF1EE10FA56
:1024400000D87047416C00EE101AB5EEC00AF1EEEC
:1024500010FA03DD416C00EE101A04E0416C00EE4E
:10246000101AB1EE400A416E00EE901AB4EEE00A86
:10247000F1EE10FA05DD9FED180A10EE101A016258
:1024800027E0416E00EE901A416C00EE101AB5EE96
:10249000C00AF1EE10FA03DD416C00EE101A04E000
:1024A000416C00EE101AB1EE400A30EEC01A416ED7
:1024B00000EE101A816E00EE901A30EE600AC1EE46
:1024C000000A016A00EE101A20EE800A10EE101ABF
:1024D000016200BFB5E700000000000070B50446CF
:1024E0000D4661190F2204F58070FEF784FD0F215F
:1024F00004F580700DF090F801280ED1D4F8072172
:1025000004F2C110C4F8C121B4F80B11A4F8C5112C
:10251000002140F2C710015503E0012140F2C7102D
:10252000015570BD70B504460D4661190A68C4F8BE
:1025300000214A68C4F804218968C4F808110C21F4
:1025400004F580700DF068F801280DD140F20911F2
:10255000B4F807214FF4BA70A4F87221095D01554F
:102560000021401C015503E0012140F27510015586
:1025700070BD000010B5064B00221146104600F059
:1025800083FD044B00221146012000F07DFD10BDAB
:10259000A9260008C126000870B505460C46164657
:1025A0002068A0F201200B2876D2DFE800F00607B1
:1025B00008091F2021225D5E5F0000BF00BF00BF31
:1025C00036498D4201D0012100E0002167225143AC
:1025D000334A02EB41122168A1F2012167235943DA
:1025E00002EB8100314600F079F855E000BF00BFF2
:1025F00000BF2A48854201D0012000E0002029497F
:1026000001EB80012068A0F20520085C012815D1AB
:1026100022498D4201D0012100E00021672251436F
:102620001F4A02EB41122168A1F205216723594399
:1026300002EB8100314600F051F814E017498D4259
:1026400001D0012100E0002167225143144A02EB2E
:1026500041122168A1F201216723594302EB810055
:10266000314600F03BF817E000BF00BF0B498D4238
:1026700001D0012100E0002167225143084A02EB0A
:1026800041122168A1F205216723594302EB810021
:10269000314600F023F800BF00BF70BD44070020A2
:1026A0008C6E0020B402002070B504460D462A4608
:1026B00021460248FFF770FF70BD0000440700206C
:1026C00070B504460D462A4621460248FFF764FFCE
:1026D00070BD00006C070020C160704770B50446F3
:1026E0000D466878297840EA012000B22082E87817
:1026F000A97840EA012001B26182607A022806D1FD
:102700006879297940EA012001B2E18205E068791F
:10271000297940EA012001B2A182A9792176E068F5
:1027200008B1E0688047B4F91210B4F9100004F160
:102730001A02FFF7E5F970BD2DE9F04705460C4692
:1027400090461F46DDF820905D48007830B9FFF7CD
:1027500011FF5B480078401C59490870012D04D0D6
:10276000022D02D00020BDE8F087082C01DC012CEE
:1027700001DA0020F7E7012F19D1042C17DC012D15
:1027800001D0012000E000204E4901EB8001601ED5
:10279000085C032801D00020E5E7012D01D00120CD
:1027A00000E00020474901EB8001601E0F54012F1B
:1027B00019D0052C17DB012D01D0012000E00020ED
:1027C000404901EB8001601F085C032801D0002014
:1027D000C9E7012D01D0012000E00020394901EBBB
:1027E0008001601F0F54012D01D0012000E0002066
:1027F00067214843344901EB4011601E6722504372
:1028000001EB800691003046FEF78EFC2FB3012FBE
:1028100004D0022F20D0032F3DD13DE0042C0DDC4D
:1028200006F5CD70012D01D1002100E00321274ADA
:1028300002EB0112611E42F821000CE006F5CD709A
:10284000012D01D1022100E00521204A02EB0112F5
:10285000611F42F8210020E000BF042C0DDC06F5CA
:10286000CC70012D01D1012100E00421174A02EBB7
:102870000112611E42F821000CE006F5CC70012D1A
:1028800001D1002100E00321104A02EB0112611F77
:1028900042F8210001E000BF00BF00BF012D01D1BF
:1028A0000B4800E00B487060347086F8088077723F
:1028B000717A4A4606F11A0000F013FF304652E7DB
:1028C0009C020020B40200208C6E00204C88002066
:1028D000440700206C07002070B5054601240E490E
:1028E0006868884201D1E01CC4B22878042808DD59
:1028F000687A012802D1A01CC4B209E0601EC4B2EB
:1029000006E0687A012802D1A01EC4B200E0E4B259
:10291000204600F003F870BD6C07002070B5064635
:10292000052E00DD70BD062E33D2DFE806F003125F
:10293000220A1A2A3D4D3E4C40F2FF103D490860E4
:1029400029E03D4D3A4C303440F2FF1039490860DF
:1029500021E0364D364C10344FF400703549086094
:1029600019E0354D324C40344FF400703149086065
:1029700011E02E4D2E4C203440F2FF202D490860EE
:1029800009E02D4D2A4C503440F2FF2029490860BF
:1029900001E0002400BF00BF002026498860C86015
:1029A00008200861206840B120680088000A234997
:1029B000087020680078487003E000201F494870C4
:1029C0000870606840B160680088000A1B49887020
:1029D00060680078C87003E000201849C8708870EB
:1029E000A06840B1A0680088000A14490871A06876
:1029F0000078487103E00020104948710871E068D0
:102A000040B1E0680088000A0C498871E0680078ED
:102A1000C87103E000200949C8718871084B074A52
:102A20000449284602F08DF800BF7BE744070020E8
:102A30004C880020746E00206C070020A502002046
:102A4000B0020020017A012903D1F1EE400AB0EE74
:102A5000600A90F88C11012902D180ED650A01E02D
:102A600080ED640A7047000010B5024802F0EAFDEC
:102A700010BD0000680A002010B5024802F0E2FD17
:102A800010BD0000080A002010B5024802F0DAFD6F
:102A900010BD0000EC07002010B5024802F0D2FD86
:102AA00010BD0000C80A002010B5024802F0CAFD9F
:102AB00010BD00004C08002001460878103818238B
:102AC000B0FBF3F20848805CC865032A05D90868A2
:102AD0006FF30900001D886503E008686FF30900C3
:102AE0008865886D70470000506B01080146002022
:102AF0008A6A8B69CBB932B1012A0DD0022A03D080
:102B0000032A10D10EE000BFCB6A03F08073B3F14B
:102B1000807F00D1012007E0CB6AB3F1C07F00D1F4
:102B2000012001E000E000BF34E08B69B3F5005FF5
:102B30001AD132B1012A07D0022A03D0032A11D1B7
:102B40000AE000BF01200EE0CB6A03F08073B3F10E
:102B5000807F00D1012006E0CB6AB3F1C07F00D1B5
:102B6000012000E000BF15E032B1012A05D0022AA1
:102B700004D0032A0CD103E000BF00BF012008E00D
:102B8000CB6A03F08073B3F1807F00D1012000E0B5
:102B900000BF00BF7047000008B5084840680090BB
:102BA000074900980968884204D206480068401C1A
:102BB0000449086002490098086008BD001000E060
:102BC000D8030020D40300200C494868F0EE400AE6
:102BD00000BF0A494968091A01EE101AF8EE411AB5
:102BE000074991ED001AB8EE411A20EE811AF4EE71
:102BF000C11AF1EE10FAECD370470000001000E0AB
:102C0000C803002010B52DED028B82B004460E489B
:102C10004068019020680199081A00EE100AF8EE49
:102C2000400A0A4890ED000AB8EE400A80EE801A89
:102C3000B0EE418A01982060FFF7AEFFB0EE480A7F
:102C400002B0BDEC028B10BD001000E0C8030020F4
:102C500010B52DED028B00F081F80F4880880E49E9
:102C6000096801EB4102C2EBC11100EBC10000EEAB
:102C7000100AB8EE400A0848C08800EE900AF8EE44
:102C8000600A9FED061A00EE810AB0EE408AB0EEAF
:102C9000480ABDEC028B10BDC00300206F12833ABE
:102CA00010B52DED028B00F059F80F4890ED000A99
:102CB000B8EE400A808800EE900AF8EE600A9FEDB8
:102CC0000B1A00EE810A0848C08800EE900AF8EE60
:102CD000600A9FED071A00EE810AB0EE408AB0EE5E
:102CE000480ABDEC028B10BDC00300206F12833A6E
:102CF000BD3786351249096841F08071104A11606C
:102D00000021104A51601146096841F0010111602B
:102D10000D4941430D4A1160114609684FF47A721A
:102D2000B1FBF2F10A4A116008490968064AB1FB91
:102D3000F2F1084A11600021074A11607047000053
:102D4000FCED00E0001000E040420F00C80300204E
:102D5000CC030020D0030020D403002038B529483C
:102D600040680090FFF718FF274800684FF0FF31D8
:102D7000A0FB01310098181841F10001234A03C259
:102D8000234800232149026803C9FEF799F8214A24
:102D900003C220480CC81E4800680024A2FB00158E
:102DA00003FB005002FB04021848D0E90030591A16
:102DB00060EB0200184AC2E9001016480068174983
:102DC0000860174800231449026803C9FEF778F821
:102DD00012498880084680881149096841430E4895
:102DE000D0E90030591A60F100000E4AC2E9001023
:102DF0000D4800230B49026803C9FEF761F8074933
:102E0000C88038BD001000E0D4030020E00300209B
:102E1000C8030020E8030020F0030020C0030020C6
:102E2000CC030020F8030020D003002070B5064634
:102E30000C462E48006809F001F92C48006809F09A
:102E4000FDF82078617801F0070140EA0120A0F543
:102E500025702749C9680880A0788006400D6178F0
:102E600040EAE100A0F525702149C9684880A078B2
:102E700080111F49C968C872E078217901F0070103
:102E800040EA0120A0F525701949C9688881607958
:102E90008006400D217940EAE100A0F52570144933
:102EA000C968C8816079C0F380111148C068C174D5
:102EB00060790512A079E17940EA01200C49C968DE
:102EC000888245B101210A48C06881740020084900
:102ED000C968088108E000210548C06881744FF482
:102EE00025700349C968088170BD0000C402002034
:102EF000B08800201048C068808AC0F3003060B1FC
:102F00000E48007860B100200C4908700A48408FD4
:102F1000643000B20849488702E001200749087080
:102F20000548B0F93A0041F2EC31884203DD41F244
:102F30009410014948877047B088002002030020A0
:102F400070B505460C460848006809F077F8207807
:102F5000012803D1054981F83D0003E00020034921
:102F600081F83D0070BD0000D0020020B088002034
:102F70000020024981F83D0070470000B088002021
:102F80007047000008B50A788DF800204A788DF85F
:102F900001208A788DF80220CA788DF80320034B2F
:102FA000009A1B69C3F8B02108BD0000B08800205A
:102FB0007047000000B58BB00120099000200790F9
:102FC00001200890002001900290039004900A9044
:102FD0000690059001A92A4801F05EFE284802F0FB
:102FE00090FA0221264801F097FD0121244801F0C2
:102FF00093FD4FF40041224801F08EFD4FF48071A3
:103000001F4801F089FD4FF480611D4801F084FDE7
:103010004FF400711A4801F07FFD4FF40061184829
:1030200001F07AFD0E200A90069001A9154801F0E2
:1030300033FE144802F065FA0221124801F06CFDDB
:103040000121104801F068FD4FF400410D4801F0E6
:1030500063FD4FF480710B4801F05EFD4FF4806119
:10306000084801F059FD4FF40071064801F054FD85
:103070004FF40061034801F04FFD0BB000BD0000AC
:10308000440700206C07002070B504460D4600215F
:10309000012C00D10221012D01D1481CC1B21048E0
:1030A000405C142801D1002070BD01EB81000D4E61
:1030B00006EB40100A4E765C40F8362001EB8100AA
:1030C000084E06EB4010064E765C00EBC6004360EF
:1030D0000348405C401C024E70540120E4E70000AD
:1030E0006C030020508E002008B500F00BF811F0A2
:1030F000A3FE009005E000F06BF80121684611F096
:103100009FFBF8E710B5B7EE000A264880ED010AEC
:10311000B7EE000A80ED020AB7EE000A80ED030A5E
:103120009FED210A80ED040AB7EE080A80ED050A3A
:103130009FED1D0A80ED060A01201A4908709FEDD7
:103140001A2AF7EE001A9FED191ADFED190AB2EEEE
:10315000040A05F005FD06219FED131AF3EE040A9B
:103160009FED140A144808F067F9DFED0F0A9FED90
:10317000130A0421104808F07EF9DFED0B0A9FEDD9
:10318000100A02210C4808F076F900210D4804F0DD
:1031900087FE9FED0D0A0D4880ED170AA820FFF766
:1031A000A9FD10BDB06D0020000000008096184BF6
:1031B0006F12833A00007A44CC6D00200000FA447C
:1031C00000009643F408002096430B3C146D002049
:1031D00010B52DED048B86B0BD4A07CA03AB07C3FB
:1031E000BC48FFF70FFDBC4880ED000ABB4890EDDE
:1031F000000AB948D0ED000A30EE200AB74880ED49
:10320000000A00BFB64800680022B64B181A72EBDD
:10321000020102DA0020B2490860B1480068401C8F
:10322000AF490860B048FEF793F9AF4890ED000A47
:10323000AB4880ED080AAC4890ED010AA84880ED43
:10324000090AA94890ED020AA54880ED0A0AA64895
:1032500090ED030AA24880ED050AA34890ED040A08
:103260009F4880ED060AA04890ED050A9C4880ED35
:10327000070A00F1200200F114019C4805F0B6FA9B
:10328000974890ED0A1AF0EE410A90ED081AB0EE58
:10329000410A0CF05DFFB1EE400ADFED950A20EE29
:1032A000200ADFED940A80EE201A8D4880ED211A65
:1032B00090ED0A1AF0EE410A90ED091AB0EE410ABB
:1032C0000CF046FFDFED8A0A20EE200ADFED890AC6
:1032D00080EE201A824880ED221A90ED0A3AF0EE34
:1032E000432A90ED093AB0EE432A90ED083AF0EE09
:1032F000431A90ED073AB0EE431A90ED063AF0EE1D
:10330000430A90ED053AB0EE430A734890ED003A57
:1033100005F064FD72497848D0E91534026DC06D3E
:10332000C1E902344A6008610A1D60317348FEF742
:1033300027FB6B4A121D02F168017148FEF720FB62
:10334000674A121D02F174016E48FEF719FB644AC8
:10335000121D694603A800F017F9002039E0604902
:10336000203101EB800191ED000A694601EB8001FB
:10337000D1ED000A30EE600A5749D1ED000A60EE47
:10338000200A574991ED170A534991ED001A30EE82
:10339000011A80EE810A5249383101EB8001D1EDEA
:1033A000000A4F4991ED171A60EE810A91ED171A44
:1033B0004949D1ED001A31EE211AC0EE811A30EEE2
:1033C000210A4749383101EB800181ED000A411C97
:1033D000C8B20328C3DB424A121D02F14001A1F129
:1033E0000C00FEF7CDFA484890ED6A0A3C4880EDA3
:1033F000250A454890ED690A394880ED240A42487B
:1034000090ED680A364880ED230A3F4890ED6B0A3C
:10341000334880ED260A90ED010A3C4880ED000A11
:103420002F4890ED020A394880ED010A2C4890EDB2
:10343000030A364880ED020A294890ED040A334811
:1034400080ED030A264A121D02F12801A1F10C00A9
:10345000FEF796FA224890ED0B8AD0ED0C8AD0ED5B
:10346000250AB0EE600A10F06DFF20EE289A1C4885
:10347000D0ED250AB0EE600A0FF068FC08EE009A65
:10348000174880ED0B9AD0ED250AB0EE600A0FF0D8
:103490005DFC20EE289A1248D0ED250AB0EE600AB5
:1034A00010F050FF08EE409A0D4880ED0C9A00BFD6
:1034B0001748007800F0010008B906F059FB1448DD
:1034C0000068401C1249086006B0BDEC048B10BDBA
:1034D000946B0108480200204C020020500200209A
:1034E000146D0020006CCA8870960020B06D00201A
:1034F00000003443DB0F4940A8970020706B01089F
:103500007C6B0108886B0108A8960020646E00207F
:103510005C02002000B52423034AA2F124010348E1
:1035200008F066F800BD00000C910020C4090020DE
:1035300000B5FF23034AA2F58071034810F0BEFED8
:1035400000BD000030920020C409002070B5044680
:103550000D4661190D2204F58070FDF74CFD0D211B
:1035600004F580700CF058F8012808D1D4F8071140
:10357000C4F8631100214FF4B470015503E0012138
:103580004FF4B470015570BDD2ED020A92ED021AEB
:10359000B6EE000A00EEC10AD2ED030A92ED031A5C
:1035A00000EEC10AD0ED000A20EE200AD2ED010A99
:1035B00092ED021A60EE810A92ED001AD2ED031A22
:1035C00041EE210A90ED011A00EE810AD2ED010AC6
:1035D00092ED031A60EE810A92ED001AD2ED021A02
:1035E00041EE610A90ED021A00EE810AF0EE000A47
:1035F00020EE200A81ED000A92ED010AD2ED020AC6
:1036000020EE200AD2ED000A92ED031A00EEC10A64
:10361000D0ED000A60EE200A92ED011AD2ED011AF7
:10362000B6EE000A01EE610AD2ED031A92ED032A0A
:10363000B0EE401A01EEC21AD0ED011AB0EE600AE7
:1036400001EE210AD2ED020A92ED031A60EE810A20
:1036500092ED001AD2ED011A41EE210A90ED021A04
:1036600000EE810AF0EE000A20EE200A81ED010A48
:1036700092ED010AD2ED030A20EE200AD2ED000AF3
:1036800092ED021A00EE810AD0ED000A20EE200A27
:10369000D2ED020A92ED031A60EE810A92ED001A51
:1036A000D2ED011A41EE610A90ED011A00EE810A95
:1036B00092ED011AD2ED011AF6EE000A41EE610A0E
:1036C00092ED021AD2ED021A41EE610A90ED021A51
:1036D00000EE810AF0EE000A20EE200A81ED020AD7
:1036E000704770B504460D461646204600F033F884
:1036F00000EE106AB8EE400A10EE100AA06084F8DE
:103700003150002084F8330084F832006DB1012D6F
:1037100017D0022D1CD12803A4F82F002420A08646
:103720000A20E086E801208713E04FF40050A4F857
:103730002F001320A0860A20E0864FF48070208797
:1037400007E04FF40050A4F82F000120A08600E00D
:1037500000BF00BF70BD10B5044642212046FDF7F2
:10376000C1FC10BD72B600BFFEE700000FF0B8FE4E
:1037700028E015480068408A1449088012484068CB
:10378000408A404200B2124908800F488068408A4F
:10379000104908800C48C068408A404200B20E4977
:1037A0000880FFF7A7FB00F005FD0FF07BFD0FF091
:1037B000EBFD08F057FD04490868FFF78DF801207C
:1037C00011F010F8D5E700006864002086010020A1
:1037D000880100208A0100208C01002070B5054678
:1037E00065B9194890ED000AB5EEC00AF1EE10FA7D
:1037F00004D1FFF72DFA144880ED000A012D16D1EF
:10380000114890ED000AB5EEC00AF1EE10FA0ED0A4
:10381000FFF71EFA0C48D0ED000A30EE600ABDEE4C
:10382000C00A10EE104A9FED090A80ED000A002C34
:1038300009DDB4F57A7F06DA00EE104AB8EEC00A68
:10384000034880ED000A70BD3C020020000000002B
:103850003802002070B504460D46611904F58070E9
:103860000A68C4F800214A68C4F804210989A4F848
:1038700008110A210BF0D0FE012816D140F21111D7
:10388000D4F807214FF4A570C4F84021D4F80B21D7
:10389000C4F84421B4F80F21A4F84821095D01556A
:1038A000002140F24110015503E0012140F2411096
:1038B000015570BD70B504460D466119142204F51A
:1038C0008070FDF798FB142104F580700BF0A4FEC6
:1038D000012815D140F21111D4F80721C4F8342180
:1038E000D4F80B21C4F83821B4F80F21A4F83C21F6
:1038F000095D84F83E11002140F23F10015503E0BC
:10390000012140F23F10015570BD02E0012010F08E
:1039100069FF00F0BDF80028F8D000F07BFC0AE059
:1039200010F0B2FE00F026FC00F0A6FD10F0D6FE6E
:10393000012010F057FFF3E770B504460D466119FA
:10394000312204F58070FDF756FB312104F58070BB
:103950000BF062FE01280AD1282204F2071104F5B7
:10396000E470FDF748FB002184F8F01102E001212A
:1039700084F8F01170BD000030B5034613B94FF65E
:10398000FF7030BD09E013F8014B82EA0400C0B2B9
:10399000054D35F8100080EA2222081EA1F1010130
:1039A000F1D11046EDE70000B67A010830B50346C4
:1039B00005E013F8010B80EA02040448025D081ECA
:1039C000A1F10101F5D1104630BD0000B579010823
:1039D00010B502E0012010F005FF00F059F80028B2
:1039E000F8D0054801780078401C034A107009B9E6
:1039F000FEF7EEF9014810BD05030020B088002055
:103A000010B52DED028B0446FFF722F9D4ED390AEB
:103A100030EE600AB0EE408A0C4890ED000A84ED6A
:103A2000150A0B4890ED000A84ED160A094890ED3E
:103A3000000A84ED170A084890ED000A84ED180A80
:103A4000B0EE480ABDEC028B10BD00004803002018
:103A50004C030020500300205403002070B50A4896
:103A60000468001D0568001D0668344454B108222E
:103A70000649204606F0D7F80422044910312846AA
:103A800006F0D1F870BD0000107AFF1F5200002030
:103A90000148007870470000140200200048704779
:103AA0003094002010B52DED068BB0EE408AF0EE7C
:103AB000608AA048007D002855D19E4890ED060AF6
:103AC00030EE080A80ED060A006990F81E02C0F385
:103AD0004000E8B198480078012815D1954890ED4C
:103AE000060A10EE101A084612F03EFD41EC1A0BC1
:103AF0009FED920B53EC102B11F03AFC41EC190B9B
:103B000011F0D4FA8B49886100208B49087002E0DB
:103B10000120894908708748006990F81E02C0F3A7
:103B20008010E8B187480078012815D1814890EDD0
:103B3000060A10EE101A084612F016FD41EC1A0B98
:103B40009FED7E0B53EC102B12F00CFA41EC190B8D
:103B500011F0ACFA7749886100207A49087002E0D8
:103B60000120784908707348007D012838D17648D3
:103B700090ED000AF0EE080A08EE600A80ED000AF7
:103B800090ED000AB5EEC00AF1EE10FA02DD90EDFC
:103B9000000A04E06C4890ED000AB1EE400AF7EE2E
:103BA000000AB4EEE00AF1EE10FA19DB6148D0E940
:103BB0000821104612F018FD00EE100A6248D0ED00
:103BC000000A30EE200A10EE104A204612F07AFE6B
:103BD000584AC2E908019FED5D0A5B4880ED000A82
:103BE0005448407D002856D1524890ED0A0A30EEE4
:103BF000280A80ED0A0A006990F81E02C0F34010FE
:103C0000E8B153480078012815D14A4890ED0A0AD6
:103C100010EE101A084612F0A7FC41EC1A0B9FEDAB
:103C2000470B53EC102B11F0A3FB41EC190B11F0D7
:103C30003DFA4049886200204549087002E00120B1
:103C4000434908703B48006990F81E020121B1EB1E
:103C5000D01F1DD13F480078012815D1354890ED7F
:103C60000A0A10EE101A084612F07EFC41EC1A0BFC
:103C70009FED320B53EC102B12F074F941EC190B41
:103C800011F014FA2B49886200203249087002E0D2
:103C90000120304908702748407D012838D12E483E
:103CA00090ED000AF0EE080A08EEA00A80ED000A86
:103CB00090ED000AB5EEC00AF1EE10FA02DD90EDCB
:103CC000000A04E0244890ED000AB1EE400AF7EE45
:103CD000000AB4EEE00AF1EE10FA19DB1548D0E95B
:103CE0000C21104612F080FC00EE100A1A48D0EDAC
:103CF000000A30EE200A10EE104A204612F0E2FDD3
:103D00000C4AC2E90C019FED110A134880ED000A2C
:103D10000848D0ED0A0AB0EE600A9FED101ADFEDF8
:103D2000100A0FF0A3FD034880ED0A0ABDEC068BD4
:103D300010BD0000B0880020FC0200200000000040
:103D40000000E03FFD020020F4020020000000001F
:103D5000FE020020FF020020F80200200000344391
:103D6000000034C370B52DED048BB0EE408AF0EE48
:103D7000608A00F079FE0025F748007820B102281B
:103D800045D003287DD199E00020F4490870F2481D
:103D9000C068B0F90C00404201EE100AB8EEC11A3A
:103DA000DFEDEF1A21EE211AF0EE410AEA48C06871
:103DB000B0F90E00404201EE100AB8EEC11ADFED74
:103DC000E91A21EE211AB0EE410AFFF76BFEE24834
:103DD000C068B0F90000404201EE100AB8EEC11A06
:103DE000DFEDE11A21EE211AF0EE410ADA48C0684F
:103DF000B0F9020001EE100AB8EEC11ADFEDDA1ACE
:103E000021EE211AB0EE410AFFF74CFE1EE1D24826
:103E1000C068B0F90C00404201EE100AB8EEC11AB9
:103E2000DFEDCF1A21EE211AF0EE410ACA48C06830
:103E3000B0F90E00404201EE100AB8EEC11ADFEDF3
:103E4000C91A21EE211AB0EE410AFFF72BFEC24833
:103E5000C068B0F90000404201EE100AB8EEC11A85
:103E6000DFEDC11A21EE211AF0EE410ABA48C0680E
:103E7000B0F9020001EE100AB8EEC11ADFEDBA1A6D
:103E800000E0A3E021EE211AB0EE410AFFF70AFE9E
:103E9000B648006890F84F0060B1AF48406890EDB8
:103EA000000AAD4880ED060A806890ED000AAA4835
:103EB00080ED0A0A0220A9490870C7E0A648C06838
:103EC000B0F90C00404201EE100AB8EEC11ADFED65
:103ED000A41A21EE211AF0EE410A9F48C068B0F9F9
:103EE0000E00404201EE100AB8EEC11ADFED9D1A35
:103EF00021EE211AB0EE410AFFF7D4FD9648C068C2
:103F0000B0F90000404201EE100AB8EEC11ADFED30
:103F1000961A21EE211AF0EE410A8F48C068B0F9D6
:103F2000020001EE100AB8EEC11ADFED8F1A21EE81
:103F3000211AB0EE410AFFF7B5FD8C48006890F8F1
:103F40004F0060B18448406890ED000A824880EDDF
:103F5000060A806890ED000A7F4880ED0A0A8348CF
:103F6000006890ED360AB5EEC00AF1EE10FA22D1E3
:103F70007948C068807C01281DD1FEF769FE7C4825
:103F800080ED000A79480068D0ED340AB0EE601A7E
:103F900076480068D0ED200AF8EEE00AB0EE600A3C
:103FA000724800687249D1ED000A0EF08FFE6F482A
:103FB000006880ED360AFEF74BFEB0EE409A6B4883
:103FC0000068D83005F04EFE05463FE06248C06804
:103FD000B0F90C00404201EE100AB8EEC11ADFED54
:103FE000601A21EE211AF0EE410A5B48C068B0F970
:103FF0000E00404201EE100AB8EEC11ADFED591A68
:1040000021EE211AB0EE410AFFF74CFD5248C0687C
:10401000B0F90000404201EE100AB8EEC11ADFED1F
:10402000521A21EE211AF0EE410A4B48C068B0F94D
:10403000020001EE100AB8EEC11ADFED4B1A21EEB4
:10404000211AB0EE410AFFF72DFD00BF00BF424824
:10405000007D00BB404890ED060AB4EEE80AF1EEA0
:1040600010FA02D2B0EE680A02E03B4890ED060A70
:10407000394880ED060A90ED060AB4EEC80AF1EE62
:1040800010FA02DDB0EE480A02E0334890ED060A6D
:10409000314880ED060A3048007D012837D12E488E
:1040A000D0E90821104612F09FFA00EE100AB4EE93
:1040B000C80AF1EE10FA02D218EE100A05E02648FE
:1040C000D0E90821104612F08FFA044612F0FAFBEC
:1040D000214AC2E908011046D0E90821104612F031
:1040E00083FA00EE100AB4EEE80AF1EE10FA02DDEF
:1040F00018EE900A05E01849D1E90821104612F09F
:1041000073FA044612F0DEFB134AC2E9080108F014
:104110001FF8114C24780CB1012400E00024234640
:104120000D4C94F83C202478032C01D12C4603E05C
:104130000E4C246894F8CD4021460C4C246894F829
:104140004F400CB1012400E00024204607F0BAFFE4
:10415000BDEC048B70BD0000B0880020030300207C
:10416000A69BC43B0AD7A33B52499D3918020020A5
:10417000D802002010B50D4890F83800A8B90C48B6
:104180000078012811D10948C168006900F21520A2
:104190000268CA6042680A6100898882044800781F
:1041A000401E0349087008F027F810BDB0880020B1
:1041B000720300201548C068808AC0F3402048B9C7
:1041C0001248C068C07A012804D01048C068C07A7C
:1041D000032803D101200D4981F83C000B48C06839
:1041E000C07A022809D10A480078012805D10020A8
:1041F00007490870054981F83C000448C068C07A46
:10420000022802D00120024908707047B0880020BF
:104210000403002008B5FFF7DBFB6F4908600FF0CF
:10422000F9FA6D4948604FF40F70012300221946D6
:1042300000900220FEF780FA674988604FF40F7003
:1042400001230022052100901846FEF775FA624905
:10425000C8600621B2EE081ADFED600A9FED600A21
:10426000604807F0E9F8DFED5D0A9FED5F0A022183
:104270005C4807F000F9DFED590A9FED5C0A042164
:10428000584807F0F8F84FF48371B5EE001ADFEDE7
:10429000530AB7EE000A5348983007F0CDF8DFED27
:1042A0004F0AB1EE040A02214E48983007F0E3F8B5
:1042B000DFED4A0A9FED4E0A04214A48983007F084
:1042C000DAF8DFED460AB3EE0E0A4FF48071454886
:1042D000983007F0D0F80621B2EE0E1ADFED3F0A53
:1042E0009FED430A434807F0A7F8DFED3C0A9FED36
:1042F000420A02213F4807F0BEF8DFED380A9FED81
:104300003F0A04213B4807F0B6F80421B5EE001A35
:10431000DFED320AB0EE040A3648983007F08CF828
:10432000DFED2E0A9FED320A04213248983007F063
:10433000A2F816219FED291ADFED310A9FED270A19
:104340002848983807F078F8DFED240A9FED2A0A0C
:1043500002212448983807F08EF8DFED200A9FEDFF
:10436000290A04211F48983807F085F8DFED260A4E
:104370009FED260A10211B48983807F07CF8244B43
:10438000012202211448103006F089FA214B012243
:1043900002211148303006F082FA1F4B012202211F
:1043A0000D48503006F0FCFA1C4B012202210A484D
:1043B000803006F0F5FA1A4B1A4A1E211AA007F0AF
:1043C0004DFE0549C8681D49FEF786F9024988680F
:1043D0001B49FEF781F908BD806400200000000041
:1043E00000001643C865002000401C460060EA46F5
:1043F00000004843F866002000007A440050C3469D
:104400000000C84200409C45CDCC4CBFCDCC4C3FB9
:10441000A0010020A8010020B0010020B801002068
:10442000B93C0108AD3C010850697463685F4D6F89
:10443000746F725F53616665000000008D3C010877
:10444000915001080149087570470000B0880020AC
:104450000122034B1A751A46C2E908017047000091
:10446000B0880020002003490875084680ED060A40
:1044700070470000B088002030B52DED028B85B06C
:10448000FE4840680068B0F5FA6F02D90120FC4987
:104490000870FB48007818B905B0BDEC028B30BD40
:1044A000FFF768FEF749F84804F02CF9F64890ED5C
:1044B000000AF648D0ED000A30EE200AF24880EDFE
:1044C000000AF04890ED000AF148D0ED000A30EE05
:1044D000600AEC4880ED000AE8480068007801288E
:1044E00079D1E648406890ED240AE4480068D0EDB0
:1044F000060A30EE600AB5EEC00AF1EE10FA0ADDE7
:10450000DE48406890ED240ADC480068D0ED060AD9
:1045100030EE600A0BE0D948406890ED240AB1EE15
:10452000400AD6480068D0ED060A30EE600AF2EE86
:10453000000AB4EEE00AF1EE10FA0ED2CF4800689D
:10454000007D50B90120FFF77DFFCC48C068D0F84E
:104550001A00C1170246FFF77BFFC848406890ED7C
:10456000250AC6480068D0ED0A0A30EE600AB5EEAA
:10457000C00AF1EE10FA0ADDC048406890ED250A45
:10458000BE480068D0ED0A0A30EE600A0BE0BB4876
:10459000406890ED250AB1EE400AB8480068D0EDB9
:1045A0000A0A30EE600AF2EE000AB4EEE00AF1EE1A
:1045B00010FA30D2B1480068407D60BB012000F0A5
:1045C00091FAAE488068D0F81A00C117024600F090
:1045D0008FFA20E0FFE7A9480068007D01280AD192
:1045E0000020FFF72FFFA5484068D0ED240AB0EE69
:1045F000600AFFF737FFA1480068407D01280AD113
:10460000002000F06FFA9D484068D0ED250AB0EE1A
:10461000600A00F077FA41F2883100209D4AC2E931
:10462000001041F2446000219B4A03C29FED9B0AA7
:104630009B4880ED000A9FED9B0A9B4880ED000A95
:104640008E48C068D0F81E00B0F57A6F15DA914830
:10465000D0E900304FF400529A1A60F100008D4901
:10466000C1E900208C48D0E900304FF400529A1A7A
:1046700060F100008849C1E900208048006890F896
:104680003D00012811D1864890ED000AF2EE040A9F
:1046900030EE200A80ED000A7B4890ED000AF2EE31
:1046A000040A30EE200A80ED000A74480068007D9C
:1046B00001286DD1784903C911F096FF08EE100A60
:1046C000744903C911F090FF08EE900AF0EE480A11
:1046D000B0EE680AFFF746FB744890ED000A6748A1
:1046E000006F80ED000A714890ED010A6348006F89
:1046F00080ED010A61480068D0E908315F48C06870
:10470000D0F81A001C1A61EBE0754FF0000263420A
:1047100062EB0500CDE900305848C068B0F91200DE
:10472000C117CDE9020169465448503006F026F918
:104730005248503006F0E0F85048C06E008800B291
:104740004E49C968A1F89A014C48C068B0F99A016D
:1047500046F2A811884201DA084603E04748C068DB
:10476000B0F99A014549C968A1F89A014348C0685F
:10477000B0F99A014E49884201DD084603E03F48FE
:10478000C068B0F99A013D49C968A1F89A0162E090
:104790003C48D0ED000A3C4890ED000AFFF7E2FAF1
:1047A0003648006890ED060A34484068D0ED240A87
:1047B00030EE600AB0EE408AB1EE480ADFED3D0A05
:1047C00080EE201A8DED021A2C48406890ED050A03
:1047D0008DED030A02A92948103006F04FF827484A
:1047E000103006F01BF82548006A90ED000A3248A8
:1047F00080ED000A90ED000A0FF0B0FEBDEEC00A99
:1048000010EE100A00B21D49C968A1F89A011B48B0
:10481000C068B0F99A012649884201DA084603E0E7
:104820001648C068B0F99A011449C968A1F89A01FC
:104830001248C068B0F99A0146F2A811884201DD19
:10484000084603E00D48C068B0F99A010B49C968F1
:10485000A1F89A0100BF09480068407D012878D17D
:1048600006480168D1E90C21104611F0BDFE08EEA2
:10487000100A02488068D0F81A001FE08064002007
:1048800010020020D8010020D4010020DC0100200B
:10489000E0010020F801002000020020006E5C43CF
:1048A00008020020007D7A430C020020C001002095
:1048B000589EFFFFE12E6542E401002000EE100A41
:1048C000B8EEC00AF0EE400AB0EE480A5F4806F0C3
:1048D000C2FCBDEEC00A10EE100A00B25C490880AE
:1048E0005C488068B0F9120000EE100AB8EEC00A09
:1048F000F0EE400A0846B0F9000000EE100AB8EEEB
:10490000C00A5248983806F0A6FCBDEEC00A10EE68
:10491000100A00B24F498968A1F89A014D48C06851
:10492000B0F99A014C49884201DA084603E0494847
:10493000C068B0F99A014749C968A1F89A01454889
:10494000C068B0F99A0146F2A811884202DD084613
:1049500004E008E03F48C068B0F99A013D49C968E1
:10496000A1F89A016FE03D4890ED000A3948406C8B
:1049700080ED000A394890ED010A3648406C80ED20
:10498000010A3448406890ED251AF0EE410A31489A
:10499000006890ED0A1AB0EE410ADFED311A9FED82
:1049A000311A0EF0ABFEB0EE408AB1EE480A5FED70
:1049B0003F0A80EE201A8DED021A2648406890EDDD
:1049C000070A8DED030A02A92248303005F056FF90
:1049D0002048303005F022FF1E48006C90ED000AA0
:1049E000F0EE408AB0EE680A0FF0B8FDBDEEC00AE6
:1049F00010EE100A00B217498968A1F89A0115480B
:104A0000C068B0F99A011449884201DA084603E007
:104A10001048C068B0F99A010E49C968A1F89A0116
:104A20000C48C068B0F99A0146F2A811884201DD2D
:104A3000084603E00748C068B0F99A010549C9680B
:104A4000A1F89A0100BF00BF26E500009067002092
:104A5000F401002080640020589EFFFFA801002080
:104A600000003443000034C31B48C068C07A0128EA
:104A70000CD0022802D003280CD103E000201749F3
:104A800008700BE000201549087007E00220134968
:104A9000087003E000201149087000BF00BF1048F3
:104AA00000780E490978884203D00C4800780A49FA
:104AB00008700A4800780A4908700748C068C07C36
:104AC000012803D102200449087003E0034800785C
:104AD0000149087070470000B088002001030020E1
:104AE000000300200149487570470000B08800208D
:104AF0000122034B5A751A46C2E90C0170470000A7
:104B0000B0880020002003494875084680ED0A0A55
:104B100070470000B088002010B5024692F820309F
:104B2000012B01D0022B06D110684069084314689C
:104B30006061002010BD506A40F480205062012066
:104B4000F8E7F0B504460D461E4694F8207020683C
:104B50008368A86800B900E000BF012F01D0022FD0
:104B60007CD103F0806030B903F0006018B903F025
:104B70008050002873D0C3F30161022905D9606A0F
:104B800040F4000060620120F0BD012088403060E8
:104B9000A86860B9B5F800C0E86840EA4C5C2068D5
:104BA00000F5C07000EB0110C0F800C00FE0D5E9BF
:104BB00001C040EACC00D5F80CC040EA0C00D4F8A3
:104BC00000C00CF5C07C0CEB011CCCF80000D5F843
:104BD00010C0206800F5C07000EB0110C0F804C0E0
:104BE000287D01280ED1206800F5C07000EB01106F
:104BF000406840F4807C206800F5C07000EB011034
:104C0000C0F804C0D079000692F806C040EA0C4013
:104C100092F805C040EA0C2C10794CEA000C206890
:104C200000F5C07000EB0110C0F80CC0D078000691
:104C300092F802C040EA0C4092F801C040EA0C2011
:104C400092F800C040EA0C00D4F800C00CF5C07C1B
:104C50000CEB011CCCF80800206801E016E00FE026
:104C600000F5C07000EB0110006840F0010C2068F6
:104C700000F5C07000EB0110C0F800C0002083E711
:104C8000606A40F40010606201207DE7606A40F4D1
:104C900080206062012077E7F0B504460A4621686B
:104CA00094F82050012D01D0022D7ED1424901F50A
:104CB0000071086840F001000860086820F47C502A
:104CC00008600868566A40EA06200860107D00F017
:104CD0001F06012000FA06F3C8699843C861A1F5D0
:104CE0000071D069C8B9D1F80C029843C1F80C0220
:104CF000908880B2968940EA064601F5107057699F
:104D000040F83760108880B2168940EA064601F5FF
:104D10001070576900EBC7004660D069012819D1AF
:104D2000D1F80C021843C1F80C02908880B21688A2
:104D300040EA064601F51070576940F837609089DF
:104D400080B2168940EA064601F51070576900EBFB
:104D5000C7004660906928B9D1F804029843C1F8A9
:104D6000040204E0D1F804021843C1F804021069F7
:104D700028B9D1F814029843C1F8140204E0D1F81C
:104D800014021843C1F81402106A012804D1D1F8A2
:104D90001C021843C1F81C02D1F8000220F00100E7
:104DA000C1F800020020F0BDFFE7606A40F48020F7
:104DB00060620120F7E7000000640040704770B5B2
:104DC000044694F82050012D01D0022D7DD151B917
:104DD0002068C06800F0030080B9606A40F40010E9
:104DE0006062012070BD2068006900F0030028B9EE
:104DF000606A40F4001060620120F3E7206800F56B
:104E0000D87000EB0110006800F00400906090681A
:104E100040B9206800F5D87000EB01100068400D23
:104E2000106007E0206800F5D87000EB0110006802
:104E3000C0085060206800F5D87000EB01100068D1
:104E400000F00200D060206800F5D87000EB01107F
:104E5000406800F00F001061206800F5D87000EB8A
:104E60000110406800F47F40000A9061206800F55E
:104E7000D87000EB01104068000C5061206800F50C
:104E8000D87000EB011080681870206800F5D870A9
:104E900000EB0110806800F47F40000A5870206821
:104EA00000F5D87000EB0110806800F47F00000C62
:104EB0009870206800F5D87000EB01108068000E33
:104EC000D870206800F5D87000E02FE000EB0110EA
:104ED000C0681871206800F5D87000EB0110C06838
:104EE00000F47F40000A5871206800F5D87000EB8C
:104EF0000110C06800F47F00000C9871206800F574
:104F0000D87000EB0110C068000ED87131B920686C
:104F1000C06840F020002668F06005E02068006965
:104F200040F020002668306100205BE7606A40F4B2
:104F300080206062012055E72DE9F05F04460025DE
:104F4000206846692068D0F8049020688768206847
:104F5000D0F80CA02068D0F810B02068D0F81880E5
:104F600006F00100002855D007F00100C0B1012073
:104F70002168886007F0020018B1204600F0F1FABD
:104F80000EE007F0040010B145F4006508E007F0FA
:104F9000080010B145F4805502E0204600F0E0FA28
:104FA00007F48070C8B14FF480702168886007F4FE
:104FB000007018B1204600F0D6FA0EE007F48060C9
:104FC00010B145F4005508E007F4006010B145F455
:104FD000804502E0204600F0C5FA07F48030C8B1F1
:104FE0004FF480302168886007F4003018B1204603
:104FF00000F0BBFA0EE007F4802010B145F4004544
:1050000008E007F4002010B145F4803502E02046A6
:1050100000F0AAFA06F0080038B10AF0100020B13A
:1050200045F4007510202168C86006F0040040B106
:105030000AF0080028B108202168C860204600F066
:105040000DFA06F0020038B12068C06800F00300D5
:1050500010B1204600F004FA06F0400038B10BF021
:10506000100020B145F4806510202168086106F029
:10507000200040B10BF0080028B108202168086129
:10508000204600F03BFA06F0100038B120680069B5
:1050900000F0030010B1204600F031FA06F40030B1
:1050A00040B109F0100028B1102021684860204666
:1050B00000F026FA06F4803040B109F0080028B16B
:1050C000082021684860204600F050FA06F40040AD
:1050D00088B309F0040078B306F4807020B108F0BA
:1050E000010008B145F0010506F4007020B108F098
:1050F000020008B145F0020506F4806020B108F016
:10510000040008B145F0040506F40060A0B108F001
:10511000700088B108F07000402817D006DC102815
:105120000BD020280CD0302819D10CE0502810D0FA
:10513000602814D110E01DE019E045F008050FE0EB
:1051400045F010050CE045F0200509E045F040056C
:1051500006E045F0800503E045F4807500E000BFFF
:1051600000BF2068806920F07000216888610420F9
:10517000216848602DB1606A284360622046FFF7CD
:105180001DFEBDE8F09F70B504460CB9012070BD4E
:1051900094F8200010B9204600F0B0F820680068AC
:1051A00040F001002168086000F0F6FC05460DE0C3
:1051B00000F0F2FC401B0A2808D9606A40F4003075
:1051C0006062052084F820000120E0E72068406844
:1051D00000F001000028EBD02068006820F00200F9
:1051E0002168086000F0D8FC05460DE000F0D4FC12
:1051F000401B0A2808D9606A40F40030606205202C
:1052000084F820000120C2E72068406800F0020016
:105210000028EBD1207E012806D12068006840F0EC
:1052200080002168086005E02068006820F08000A8
:1052300021680860607E012806D12068006840F07F
:1052400040002168086005E02068006820F0400008
:1052500021680860A07E012806D12068006840F01F
:1052600020002168086005E02068006820F0200028
:1052700021680860E07E012806D12068006820F0DF
:1052800010002168086005E02068006840F0100008
:1052900021680860207F012806D12068006840F05E
:1052A00008002168086005E02068006820F0080018
:1052B00021680860607F012806D12068006840F0FE
:1052C00004002168086005E02068006820F0040000
:1052D00021680860D4E90201084321690843616933
:1052E00008436168491E08432168C8610020606264
:1052F000012084F82000002049E7000010B586B0A6
:105300000446142101A8FBF70FFF4E49206888428C
:1053100041D14D480068401C4B4908600846006870
:1053200001280FD100BF002000904848006840F0DD
:105330000070464908600846006800F00070009060
:1053400000BF00BF00BF0020009040481038006838
:1053500040F008003D49103908600846006800F038
:105360000800009000BF00BF0320019002200290BF
:1053700000200390032004900920059001A93448DF
:1053800000F00AFB00220F21142000F0BFFC1420C3
:1053900000F0ACFC54E02F492068884250D100BF97
:1053A000002000902948006840F08060274908608C
:1053B0000846006800F08060009000BF00BF2248EF
:1053C0000068401C204908600846006801280FD189
:1053D00000BF002000901D48006840F000701B498D
:1053E00008600846006800F00070009000BF00BF31
:1053F00000BF0020009015481038006840F00200FF
:105400001249103908600846006800F00200009058
:1054100000BF00BF60200190022002900020039096
:10542000032004900920059001A90B4800F0B4FA6C
:1054300000220521402000F069FC402000F056FCCD
:1054400006B010BD00640040180000204038024043
:10545000000C024000680040000402407047000059
:10546000F0B589B00646002400276B4602AA002149
:105470003046FFF7A4FC002838D11D48864200D1F1
:1054800002240498042803D1039F601CC4B200E0E6
:10549000029F002526E004EB8400164901EB401032
:1054A00050F8350050B904EB840001EB401000EBDC
:1054B000C5006946426802A8904712E004EB8400E8
:1054C0000C4901EB401050F83500B84209D104EB0B
:1054D000840001EB401000EBC5006946426802A859
:1054E00090476D1C0448005DA842D4DC09B0F0BDB3
:1054F0006C070020508E00206C030020704770471E
:10550000704770B5044694F82000012822D102208B
:1055100084F820002068006820F0010021680860FD
:1055200000F03AFB05460DE000F036FB401B0A2870
:1055300008D9606A40F400306062052084F82000D9
:10554000012070BD2068406800F001000028EBD108
:105550006062F6E7606A40F4002060620120F0E7D4
:10556000704770477047704770477047704770B515
:105570000446A56D00F010FB064694F8350002289D
:1055800008D08020606500BF002084F8340000BF90
:10559000012070BD2068006820F0160021680860B6
:1055A0002068406920F0800021684861206C08B9BB
:1055B000A06C28B12068006820F00800216808600D
:1055C0002068006820F001002168086010E000F009
:1055D000E3FA801B05280BD920206065032084F89E
:1055E000350000BF002084F8340000BF0320D0E75E
:1055F0002068006800F001000028E8D194F85C10F1
:105600003F208840A860012084F8350000BF0020BA
:1056100084F8340000BF00BFBBE7014691F83500B5
:10562000022803D08020486501207047052081F8BA
:1056300035000868006820F001000A68106000204A
:10564000F3E70000F8B50446002000908C4800689D
:105650004FF41651B0FBF1F7A56D2E6894F85C106D
:1056600008208840304098B12068006800F00400AD
:1056700070B12068006820F004002168086094F888
:105680005C1008208840A860606D40F001006065F3
:1056900094F85C1001208840304068B1206840696F
:1056A00000F0800040B194F85C1001208840A860B0
:1056B000606D40F00200606594F85C100420884042
:1056C000304068B12068006800F0020040B194F8F2
:1056D0005C1004208840A860606D40F004006065A4
:1056E00094F85C1010208840304078B3206800683F
:1056F00000F0080050B394F85C1010208840A860B7
:105700002068006800F4802080B12068006800F400
:10571000002028B9206CC8B12046216C884715E0CC
:10572000A06C98B12046A16C88470FE02068006803
:1057300000F4807028B92068006820F00800216813
:105740000860206C10B12046216C884794F85C10EA
:10575000202088403040002865D02068006800F094
:10576000100000285FD094F85C1020208840A860CA
:1057700094F83500052828D12068006820F016002C
:10578000216808602068406920F080002168486135
:10579000206C08B9A06C28B12068006820F00800CF
:1057A0002168086094F85C103F208840A8600120C0
:1057B00084F8350000BF002084F8340000BF206D5D
:1057C00010B12046216D8847F8BD2068006800F4BC
:1057D000802080B12068006800F4002028B9606C47
:1057E00010B12046616C88471DE0E06BD8B12046BF
:1057F000E16B884717E02068006800F4807068B9A2
:105800002068006820F0100021680860012084F8FA
:10581000350000BF002084F8340000BFE06B10B1F9
:105820002046E16B8847606D38B3606D00F0010081
:10583000F0B1052084F835002068006820F00100F0
:105840002168086000BF0098401C0090B84200D951
:1058500005E02068006800F001000028F3D100BFD7
:10586000012084F8350000BF002084F8340000BF18
:10587000E06C10B12046E16C884700BFA4E700004F
:105880008C0000202DE9F0410446002500F084F949
:10589000074614B90120BDE8F081606A00B100BF7D
:1058A000022084F8350000BF002084F8340000BFD7
:1058B0002068006820F00100216808600AE000F01C
:1058C0006BF9C01B052805D920206065032084F8EA
:1058D0003500E0E72068006800F001000028EED104
:1058E0002068056821480540D4E901010843E168C2
:1058F00008432169084361690843A1690843E169D4
:105900000843216A08430543606A042803D1D4E9A7
:105910000B0108430543206805602068456925F0B0
:105920000705606A0543606A04280DD1A06A054333
:10593000E06A48B12046FDF7D9F828B140206065FB
:10594000012084F83500A6E7206845612046FDF770
:10595000B3F8064694F85C103F208840B060002001
:105960006065012084F83500002094E73F8010F046
:1059700070B5044600F010F906462546681C10B1C3
:1059800004480078054400BF00F006F9801BA842D7
:10599000FAD370BD88000020F8B502460B460025FA
:1059A000002400200021D6E0012606FA01F51E6839
:1059B00006EA0504AC4274D11E7906F00306012EF6
:1059C00004D01E7906F00306022E13D190684F0012
:1059D0000326BE40B0434F00DE68BE4030439060B7
:1059E000506801268E40B0431E79C6F300168E40E3
:1059F000304350601E7906F00306032E09D0D068AC
:105A00004F000326BE40B0434F009E68BE40304367
:105A1000D0601E7906F00306022E13D1CF0802F1E2
:105A2000200656F827004E07F70E0F26BE40B0435B
:105A30004F07FF0E1E69BE403043CF0802F120061B
:105A400046F8270010684F000326BE40B0431E7979
:105A500006F003064F00BE40304310605E6806F457
:105A60004036002E76D000BF002600963C4E3668A9
:105A700046F480463A4F3E603E46366806F480461D
:105A8000009600BF00BF374E8F0856F827008E07DC
:105A9000370F0F26BE40B043334EB24202D100262C
:105AA00024E057E0314EB24201D101261EE0304ED3
:105AB000B24201D1022619E02E4EB24201D1032694
:105AC00014E02D4EB24201D104260FE02B4EB2421B
:105AD00001D105260AE02A4EB24201D1062605E090
